{
  "contractName": "Autodealer",
  "abi": [
    {
      "inputs": [],
      "payable": false,
      "stateMutability": "nonpayable",
      "type": "constructor"
    },
    {
      "anonymous": false,
      "inputs": [
        {
          "indexed": true,
          "internalType": "address",
          "name": "_account",
          "type": "address"
        }
      ],
      "name": "AutodealerAdded",
      "type": "event"
    },
    {
      "anonymous": false,
      "inputs": [
        {
          "indexed": true,
          "internalType": "address",
          "name": "_account",
          "type": "address"
        }
      ],
      "name": "AutodealerRemoved",
      "type": "event"
    },
    {
      "constant": true,
      "inputs": [
        {
          "internalType": "address",
          "name": "_account",
          "type": "address"
        }
      ],
      "name": "isAutodealer",
      "outputs": [
        {
          "internalType": "bool",
          "name": "",
          "type": "bool"
        }
      ],
      "payable": false,
      "stateMutability": "view",
      "type": "function"
    },
    {
      "constant": false,
      "inputs": [
        {
          "internalType": "address",
          "name": "_account",
          "type": "address"
        }
      ],
      "name": "addAutodealer",
      "outputs": [],
      "payable": false,
      "stateMutability": "nonpayable",
      "type": "function"
    },
    {
      "constant": false,
      "inputs": [],
      "name": "removeAutodealer",
      "outputs": [],
      "payable": false,
      "stateMutability": "nonpayable",
      "type": "function"
    }
  ],
  "bytecode": "0x608060405234801561001057600080fd5b5061002933600061005960201b6101601790919060201c565b60405133907f6940de46a2427e6a166fa9620b8e212e336140808685568ebdaeb13650421c8f90600090a26100e3565b6001600160a01b03811661006c57600080fd5b61007f82826001600160e01b036100ae16565b1561008957600080fd5b6001600160a01b0316600090815260209190915260409020805460ff19166001179055565b60006001600160a01b0382166100c357600080fd5b506001600160a01b03166000908152602091909152604090205460ff1690565b61025e806100f26000396000f3fe608060405234801561001057600080fd5b50600436106100415760003560e01c806317e70f801461004657806376134d201461006e5780639fedf737146100a8575b600080fd5b61006c6004803603602081101561005c57600080fd5b50356001600160a01b03166100b0565b005b6100946004803603602081101561008457600080fd5b50356001600160a01b031661010a565b604080519115158252519081900360200190f35b61006c610122565b6100b93361010a565b6100c257600080fd5b6100d360008263ffffffff61016016565b6040516001600160a01b038216907f6940de46a2427e6a166fa9620b8e212e336140808685568ebdaeb13650421c8f90600090a250565b600061011c818363ffffffff6101ac16565b92915050565b61013360003363ffffffff6101e116565b60405133907f64924536eee2039e675c9f2481424cc2623b173360eafb645d173a941dffab9a90600090a2565b6001600160a01b03811661017357600080fd5b61017d82826101ac565b1561018757600080fd5b6001600160a01b0316600090815260209190915260409020805460ff19166001179055565b60006001600160a01b0382166101c157600080fd5b506001600160a01b03166000908152602091909152604090205460ff1690565b6001600160a01b0381166101f457600080fd5b6101fe82826101ac565b61020757600080fd5b6001600160a01b0316600090815260209190915260409020805460ff1916905556fea265627a7a723158207e1bf29ea2ee735a2d63385dd2aeb75471fd6f55fa4bb9ff548177fe5e45579164736f6c63430005100032",
  "source": "// SPDX-License-Identifier: MIT\npragma solidity >=0.4.21 <0.9.0;\n\nimport \"./Roles.sol\";\n\ncontract Autodealer {\n  using Roles for Roles.Role;\n\n  event AutodealerAdded(address indexed _account);\n  event AutodealerRemoved(address indexed _account);\n\n  Roles.Role private autodealersList;\n\n  constructor() public {\n    autodealersList.addRole(msg.sender);\n    emit AutodealerAdded(msg.sender);\n  }\n\n  ///@dev Modifiers for Autodealer.\n  modifier onlyAutodealer() {\n    require(isAutodealer(msg.sender));\n    _;\n  }\n  /*-----------------------------*/\n\n  ///@dev Autodealer Utility functions.\n  function isAutodealer(address _account) public view returns (bool) {\n    return autodealersList.hasRole(_account);\n  }\n\n  function addAutodealer(address _account) public onlyAutodealer {\n    autodealersList.addRole(_account);\n    emit AutodealerAdded(_account);\n  }\n\n  function removeAutodealer() public {\n    autodealersList.removeRole(msg.sender);\n    emit AutodealerRemoved(msg.sender);\n  }\n  /*-----------------------------*/\n\n}\n",
  "sourcePath": "C:\\Users\\LEGION\\Desktop\\Desktop\\Final\\contracts\\rolesUtils[deprecated]\\Autodealer.sol",
  "compiler": {
    "name": "solc",
    "version": "0.5.16+commit.9c3226ce.Emscripten.clang"
  },
  "schemaVersion": "3.4.16",
  "updatedAt": "2023-11-27T13:07:31.289Z",
  "networkType": "ethereum",
  "devdoc": {
    "methods": {
      "isAutodealer(address)": {
        "details": "Autodealer Utility functions."
      }
    }
  },
  "userdoc": {
    "methods": {}
  }
}