{
  "contractName": "Customer",
  "abi": [
    {
      "inputs": [],
      "payable": false,
      "stateMutability": "nonpayable",
      "type": "constructor"
    },
    {
      "anonymous": false,
      "inputs": [
        {
          "indexed": true,
          "internalType": "address",
          "name": "_account",
          "type": "address"
        }
      ],
      "name": "CustomerAdded",
      "type": "event"
    },
    {
      "anonymous": false,
      "inputs": [
        {
          "indexed": true,
          "internalType": "address",
          "name": "_account",
          "type": "address"
        }
      ],
      "name": "CustomerRemoved",
      "type": "event"
    },
    {
      "constant": true,
      "inputs": [
        {
          "internalType": "address",
          "name": "_account",
          "type": "address"
        }
      ],
      "name": "isCustomer",
      "outputs": [
        {
          "internalType": "bool",
          "name": "",
          "type": "bool"
        }
      ],
      "payable": false,
      "stateMutability": "view",
      "type": "function"
    },
    {
      "constant": false,
      "inputs": [
        {
          "internalType": "address",
          "name": "_account",
          "type": "address"
        }
      ],
      "name": "addCustomer",
      "outputs": [],
      "payable": false,
      "stateMutability": "nonpayable",
      "type": "function"
    },
    {
      "constant": false,
      "inputs": [],
      "name": "removeCustomer",
      "outputs": [],
      "payable": false,
      "stateMutability": "nonpayable",
      "type": "function"
    }
  ],
  "bytecode": "0x608060405234801561001057600080fd5b5061002933600061005960201b6101951790919060201c565b60405133907fcd118a02bd36f224f6f1b93812f78d2bbc2c2dc1bc0f60c176e3b4fe09f1483f90600090a26100e3565b6001600160a01b03811661006c57600080fd5b61007f82826001600160e01b036100ae16565b1561008957600080fd5b6001600160a01b0316600090815260209190915260409020805460ff19166001179055565b60006001600160a01b0382166100c357600080fd5b506001600160a01b03166000908152602091909152604090205460ff1690565b61025e806100f26000396000f3fe608060405234801561001057600080fd5b50600436106100415760003560e01c806328fd5e8314610046578063ad973d7414610080578063ceecd596146100a8575b600080fd5b61006c6004803603602081101561005c57600080fd5b50356001600160a01b03166100b0565b604080519115158252519081900360200190f35b6100a66004803603602081101561009657600080fd5b50356001600160a01b03166100c8565b005b6100a6610122565b60006100c2818363ffffffff61016016565b92915050565b6100d1336100b0565b6100da57600080fd5b6100eb60008263ffffffff61019516565b6040516001600160a01b038216907fcd118a02bd36f224f6f1b93812f78d2bbc2c2dc1bc0f60c176e3b4fe09f1483f90600090a250565b61013360003363ffffffff6101e116565b60405133907fb4c88a9c5cd906354abdd1cc29e4f94c6c4de90754fb80ce51e6a33417bc81b690600090a2565b60006001600160a01b03821661017557600080fd5b506001600160a01b03166000908152602091909152604090205460ff1690565b6001600160a01b0381166101a857600080fd5b6101b28282610160565b156101bc57600080fd5b6001600160a01b0316600090815260209190915260409020805460ff19166001179055565b6001600160a01b0381166101f457600080fd5b6101fe8282610160565b61020757600080fd5b6001600160a01b0316600090815260209190915260409020805460ff1916905556fea265627a7a72315820a96553b357a1fa1b2bc224adb8bce6914d01a7d1c34c1c6494791f74c72d040c64736f6c63430005100032",
  "source": "// SPDX-License-Identifier: MIT\npragma solidity >=0.4.21 <0.9.0;\n\nimport \"./Roles.sol\";\n\ncontract Customer {\n  using Roles for Roles.Role;\n\n  event CustomerAdded(address indexed _account);\n  event CustomerRemoved(address indexed _account);\n\n  Roles.Role private customersList;\n\n  constructor() public {\n    customersList.addRole(msg.sender);\n    emit CustomerAdded(msg.sender);\n  }\n\n  ///@dev Modifiers for Customer.\n  modifier onlyCustomer() {\n    require(isCustomer(msg.sender));\n    _;\n  }\n  /*-----------------------------*/\n\n  ///@dev Customer Utility functions.\n  function isCustomer(address _account) public view returns (bool) {\n    return customersList.hasRole(_account);\n  }\n\n  function addCustomer(address _account) public onlyCustomer {\n    customersList.addRole(_account);\n    emit CustomerAdded(_account);\n  }\n\n  function removeCustomer() public {\n    customersList.removeRole(msg.sender);\n    emit CustomerRemoved(msg.sender);\n  }\n  /*-----------------------------*/\n\n}\n",
  "sourcePath": "C:\\Users\\LEGION\\Desktop\\Desktop\\Final\\contracts\\rolesUtils[deprecated]\\Customer.sol",
  "compiler": {
    "name": "solc",
    "version": "0.5.16+commit.9c3226ce.Emscripten.clang"
  },
  "schemaVersion": "3.4.16",
  "updatedAt": "2023-11-27T13:07:31.293Z",
  "networkType": "ethereum",
  "devdoc": {
    "methods": {
      "isCustomer(address)": {
        "details": "Customer Utility functions."
      }
    }
  },
  "userdoc": {
    "methods": {}
  }
}