{
  "contractName": "logisticsCompany",
  "abi": [
    {
      "inputs": [],
      "payable": false,
      "stateMutability": "nonpayable",
      "type": "constructor"
    },
    {
      "anonymous": false,
      "inputs": [
        {
          "indexed": true,
          "internalType": "address",
          "name": "_account",
          "type": "address"
        }
      ],
      "name": "logisticsCompanyAdded",
      "type": "event"
    },
    {
      "anonymous": false,
      "inputs": [
        {
          "indexed": true,
          "internalType": "address",
          "name": "_account",
          "type": "address"
        }
      ],
      "name": "logisticsCompanyRemoved",
      "type": "event"
    },
    {
      "constant": true,
      "inputs": [
        {
          "internalType": "address",
          "name": "_account",
          "type": "address"
        }
      ],
      "name": "islogisticsCompany",
      "outputs": [
        {
          "internalType": "bool",
          "name": "",
          "type": "bool"
        }
      ],
      "payable": false,
      "stateMutability": "view",
      "type": "function"
    },
    {
      "constant": false,
      "inputs": [
        {
          "internalType": "address",
          "name": "_account",
          "type": "address"
        }
      ],
      "name": "addlogisticsCompany",
      "outputs": [],
      "payable": false,
      "stateMutability": "nonpayable",
      "type": "function"
    },
    {
      "constant": false,
      "inputs": [],
      "name": "removelogisticsCompany",
      "outputs": [],
      "payable": false,
      "stateMutability": "nonpayable",
      "type": "function"
    }
  ],
  "bytecode": "0x608060405234801561001057600080fd5b5061002933600061005960201b6101951790919060201c565b60405133907f9b2a9d5a4b9252fd8885a94e64b4972446c36d681670b33428286eac16cbcf1790600090a26100e3565b6001600160a01b03811661006c57600080fd5b61007f82826001600160e01b036100ae16565b1561008957600080fd5b6001600160a01b0316600090815260209190915260409020805460ff19166001179055565b60006001600160a01b0382166100c357600080fd5b506001600160a01b03166000908152602091909152604090205460ff1690565b61025e806100f26000396000f3fe608060405234801561001057600080fd5b50600436106100415760003560e01c806303b5c0b3146100465780634a1ee11414610080578063be68e124146100a8575b600080fd5b61006c6004803603602081101561005c57600080fd5b50356001600160a01b03166100b0565b604080519115158252519081900360200190f35b6100a66004803603602081101561009657600080fd5b50356001600160a01b03166100c8565b005b6100a6610122565b60006100c2818363ffffffff61016016565b92915050565b6100d1336100b0565b6100da57600080fd5b6100eb60008263ffffffff61019516565b6040516001600160a01b038216907f9b2a9d5a4b9252fd8885a94e64b4972446c36d681670b33428286eac16cbcf1790600090a250565b61013360003363ffffffff6101e116565b60405133907f0f5950687962f62ff7ec530a8256278ab3de74ba87ef2d91ee4d984219c923b690600090a2565b60006001600160a01b03821661017557600080fd5b506001600160a01b03166000908152602091909152604090205460ff1690565b6001600160a01b0381166101a857600080fd5b6101b28282610160565b156101bc57600080fd5b6001600160a01b0316600090815260209190915260409020805460ff19166001179055565b6001600160a01b0381166101f457600080fd5b6101fe8282610160565b61020757600080fd5b6001600160a01b0316600090815260209190915260409020805460ff1916905556fea265627a7a72315820b67ade6819ae7557ad831389fa31a6f2c308ac0bd53a74018e17b8210ad1997a64736f6c63430005100032",
  "source": "// SPDX-License-Identifier: MIT\npragma solidity >=0.4.21 <0.9.0;\n\nimport \"./Roles.sol\";\n\ncontract logisticsCompany {\n  using Roles for Roles.Role;\n\n  event logisticsCompanyAdded(address indexed _account);\n  event logisticsCompanyRemoved(address indexed _account);\n\n  Roles.Role private logisticsCompanysList;\n\n  constructor() public {\n    logisticsCompanysList.addRole(msg.sender);\n    emit logisticsCompanyAdded(msg.sender);\n  }\n\n  ///@dev Modifiers for logisticsCompany.\n  modifier onlylogisticsCompany() {\n    require(islogisticsCompany(msg.sender));\n    _;\n  }\n  /*-----------------------------*/\n\n  ///@dev logisticsCompany Utility functions.\n  function islogisticsCompany(address _account) public view returns (bool) {\n    return logisticsCompanysList.hasRole(_account);\n  }\n\n  function addlogisticsCompany(address _account) public onlylogisticsCompany {\n    logisticsCompanysList.addRole(_account);\n    emit logisticsCompanyAdded(_account);\n  }\n\n  function removelogisticsCompany() public {\n    logisticsCompanysList.removeRole(msg.sender);\n    emit logisticsCompanyRemoved(msg.sender);\n  }\n  /*-----------------------------*/\n\n}\n",
  "sourcePath": "C:\\Users\\LEGION\\Desktop\\Desktop\\Final\\contracts\\rolesUtils[deprecated]\\LogisticsCompany.sol",
  "compiler": {
    "name": "solc",
    "version": "0.5.16+commit.9c3226ce.Emscripten.clang"
  },
  "schemaVersion": "3.4.16",
  "updatedAt": "2023-11-27T13:07:31.297Z",
  "networkType": "ethereum",
  "devdoc": {
    "methods": {
      "islogisticsCompany(address)": {
        "details": "logisticsCompany Utility functions."
      }
    }
  },
  "userdoc": {
    "methods": {}
  }
}