{
  "contractName": "SupplyChain",
  "abi": [
    {
      "inputs": [],
      "payable": true,
      "stateMutability": "payable",
      "type": "constructor"
    },
    {
      "anonymous": false,
      "inputs": [
        {
          "indexed": false,
          "internalType": "uint256",
          "name": "uid",
          "type": "uint256"
        }
      ],
      "name": "Manufactured",
      "type": "event"
    },
    {
      "anonymous": false,
      "inputs": [
        {
          "indexed": true,
          "internalType": "address",
          "name": "_account",
          "type": "address"
        }
      ],
      "name": "ManufacturerAdded",
      "type": "event"
    },
    {
      "anonymous": false,
      "inputs": [
        {
          "indexed": false,
          "internalType": "uint256",
          "name": "uid",
          "type": "uint256"
        }
      ],
      "name": "PurchasedByAutoDealer",
      "type": "event"
    },
    {
      "anonymous": false,
      "inputs": [
        {
          "indexed": false,
          "internalType": "uint256",
          "name": "uid",
          "type": "uint256"
        }
      ],
      "name": "PurchasedByCustomer",
      "type": "event"
    },
    {
      "anonymous": false,
      "inputs": [
        {
          "indexed": false,
          "internalType": "uint256",
          "name": "uid",
          "type": "uint256"
        }
      ],
      "name": "ReceivedByAutoDealer",
      "type": "event"
    },
    {
      "anonymous": false,
      "inputs": [
        {
          "indexed": false,
          "internalType": "uint256",
          "name": "uid",
          "type": "uint256"
        }
      ],
      "name": "ReceivedByCustomer",
      "type": "event"
    },
    {
      "anonymous": false,
      "inputs": [
        {
          "indexed": false,
          "internalType": "uint256",
          "name": "uid",
          "type": "uint256"
        }
      ],
      "name": "ReceivedBylogisticsCompany",
      "type": "event"
    },
    {
      "anonymous": false,
      "inputs": [
        {
          "indexed": false,
          "internalType": "uint256",
          "name": "uid",
          "type": "uint256"
        }
      ],
      "name": "ShippedByAutoDealer",
      "type": "event"
    },
    {
      "anonymous": false,
      "inputs": [
        {
          "indexed": false,
          "internalType": "uint256",
          "name": "uid",
          "type": "uint256"
        }
      ],
      "name": "ShippedByManufacturer",
      "type": "event"
    },
    {
      "anonymous": false,
      "inputs": [
        {
          "indexed": false,
          "internalType": "uint256",
          "name": "uid",
          "type": "uint256"
        }
      ],
      "name": "ShippedBylogisticsCompany",
      "type": "event"
    },
    {
      "constant": true,
      "inputs": [],
      "name": "uid",
      "outputs": [
        {
          "internalType": "uint256",
          "name": "",
          "type": "uint256"
        }
      ],
      "payable": false,
      "stateMutability": "view",
      "type": "function"
    },
    {
      "constant": true,
      "inputs": [
        {
          "internalType": "address",
          "name": "_account",
          "type": "address"
        }
      ],
      "name": "hasManufacturerRole",
      "outputs": [
        {
          "internalType": "bool",
          "name": "",
          "type": "bool"
        }
      ],
      "payable": false,
      "stateMutability": "view",
      "type": "function"
    },
    {
      "constant": false,
      "inputs": [
        {
          "internalType": "address",
          "name": "_account",
          "type": "address"
        }
      ],
      "name": "addManufacturerRole",
      "outputs": [],
      "payable": false,
      "stateMutability": "nonpayable",
      "type": "function"
    },
    {
      "constant": true,
      "inputs": [
        {
          "internalType": "address",
          "name": "_account",
          "type": "address"
        }
      ],
      "name": "hasAutoDealerRole",
      "outputs": [
        {
          "internalType": "bool",
          "name": "",
          "type": "bool"
        }
      ],
      "payable": false,
      "stateMutability": "view",
      "type": "function"
    },
    {
      "constant": false,
      "inputs": [
        {
          "internalType": "address",
          "name": "_account",
          "type": "address"
        }
      ],
      "name": "addAutoDealerRole",
      "outputs": [],
      "payable": false,
      "stateMutability": "nonpayable",
      "type": "function"
    },
    {
      "constant": true,
      "inputs": [
        {
          "internalType": "address",
          "name": "_account",
          "type": "address"
        }
      ],
      "name": "haslogisticsCompanyRole",
      "outputs": [
        {
          "internalType": "bool",
          "name": "",
          "type": "bool"
        }
      ],
      "payable": false,
      "stateMutability": "view",
      "type": "function"
    },
    {
      "constant": false,
      "inputs": [
        {
          "internalType": "address",
          "name": "_account",
          "type": "address"
        }
      ],
      "name": "addlogisticsCompanyRole",
      "outputs": [],
      "payable": false,
      "stateMutability": "nonpayable",
      "type": "function"
    },
    {
      "constant": true,
      "inputs": [
        {
          "internalType": "address",
          "name": "_account",
          "type": "address"
        }
      ],
      "name": "hasCustomerRole",
      "outputs": [
        {
          "internalType": "bool",
          "name": "",
          "type": "bool"
        }
      ],
      "payable": false,
      "stateMutability": "view",
      "type": "function"
    },
    {
      "constant": false,
      "inputs": [
        {
          "internalType": "address",
          "name": "_account",
          "type": "address"
        }
      ],
      "name": "addCustomerRole",
      "outputs": [],
      "payable": false,
      "stateMutability": "nonpayable",
      "type": "function"
    },
    {
      "constant": false,
      "inputs": [
        {
          "internalType": "string",
          "name": "manufacturerName",
          "type": "string"
        },
        {
          "internalType": "string",
          "name": "manufacturerDetails",
          "type": "string"
        },
        {
          "internalType": "string",
          "name": "manufacturerLongitude",
          "type": "string"
        },
        {
          "internalType": "string",
          "name": "manufacturerLatitude",
          "type": "string"
        },
        {
          "internalType": "string",
          "name": "productName",
          "type": "string"
        },
        {
          "internalType": "uint256",
          "name": "productCode",
          "type": "uint256"
        },
        {
          "internalType": "uint256",
          "name": "productPrice",
          "type": "uint256"
        },
        {
          "internalType": "string",
          "name": "productCategory",
          "type": "string"
        }
      ],
      "name": "manufactureProduct",
      "outputs": [],
      "payable": false,
      "stateMutability": "nonpayable",
      "type": "function"
    },
    {
      "constant": false,
      "inputs": [
        {
          "internalType": "uint256",
          "name": "_uid",
          "type": "uint256"
        }
      ],
      "name": "purchaseByAutoDealer",
      "outputs": [],
      "payable": false,
      "stateMutability": "nonpayable",
      "type": "function"
    },
    {
      "constant": false,
      "inputs": [
        {
          "internalType": "uint256",
          "name": "_uid",
          "type": "uint256"
        }
      ],
      "name": "shipToAutoDealer",
      "outputs": [],
      "payable": false,
      "stateMutability": "nonpayable",
      "type": "function"
    },
    {
      "constant": false,
      "inputs": [
        {
          "internalType": "uint256",
          "name": "_uid",
          "type": "uint256"
        },
        {
          "internalType": "string",
          "name": "autoDealerLongitude",
          "type": "string"
        },
        {
          "internalType": "string",
          "name": "autoDealerLatitude",
          "type": "string"
        }
      ],
      "name": "receiveByAutoDealer",
      "outputs": [],
      "payable": false,
      "stateMutability": "nonpayable",
      "type": "function"
    },
    {
      "constant": false,
      "inputs": [
        {
          "internalType": "uint256",
          "name": "_uid",
          "type": "uint256"
        }
      ],
      "name": "purchaseByCustomer",
      "outputs": [],
      "payable": false,
      "stateMutability": "nonpayable",
      "type": "function"
    },
    {
      "constant": false,
      "inputs": [
        {
          "internalType": "uint256",
          "name": "_uid",
          "type": "uint256"
        }
      ],
      "name": "shipByAutoDealer",
      "outputs": [],
      "payable": false,
      "stateMutability": "nonpayable",
      "type": "function"
    },
    {
      "constant": false,
      "inputs": [
        {
          "internalType": "uint256",
          "name": "_uid",
          "type": "uint256"
        },
        {
          "internalType": "string",
          "name": "logisticsCompanyLongitude",
          "type": "string"
        },
        {
          "internalType": "string",
          "name": "logisticsCompanyLatitude",
          "type": "string"
        }
      ],
      "name": "receiveBylogisticsCompany",
      "outputs": [],
      "payable": false,
      "stateMutability": "nonpayable",
      "type": "function"
    },
    {
      "constant": false,
      "inputs": [
        {
          "internalType": "uint256",
          "name": "_uid",
          "type": "uint256"
        }
      ],
      "name": "shipBylogisticsCompany",
      "outputs": [],
      "payable": false,
      "stateMutability": "nonpayable",
      "type": "function"
    },
    {
      "constant": false,
      "inputs": [
        {
          "internalType": "uint256",
          "name": "_uid",
          "type": "uint256"
        }
      ],
      "name": "receiveByCustomer",
      "outputs": [],
      "payable": false,
      "stateMutability": "nonpayable",
      "type": "function"
    },
    {
      "constant": true,
      "inputs": [
        {
          "internalType": "uint256",
          "name": "_uid",
          "type": "uint256"
        },
        {
          "internalType": "string",
          "name": "_type",
          "type": "string"
        },
        {
          "internalType": "uint256",
          "name": "i",
          "type": "uint256"
        }
      ],
      "name": "fetchProductPart1",
      "outputs": [
        {
          "internalType": "uint256",
          "name": "",
          "type": "uint256"
        },
        {
          "internalType": "uint256",
          "name": "",
          "type": "uint256"
        },
        {
          "internalType": "address",
          "name": "",
          "type": "address"
        },
        {
          "internalType": "address",
          "name": "",
          "type": "address"
        },
        {
          "internalType": "string",
          "name": "",
          "type": "string"
        },
        {
          "internalType": "string",
          "name": "",
          "type": "string"
        },
        {
          "internalType": "string",
          "name": "",
          "type": "string"
        },
        {
          "internalType": "string",
          "name": "",
          "type": "string"
        }
      ],
      "payable": false,
      "stateMutability": "view",
      "type": "function"
    },
    {
      "constant": true,
      "inputs": [
        {
          "internalType": "uint256",
          "name": "_uid",
          "type": "uint256"
        },
        {
          "internalType": "string",
          "name": "_type",
          "type": "string"
        },
        {
          "internalType": "uint256",
          "name": "i",
          "type": "uint256"
        }
      ],
      "name": "fetchProductPart2",
      "outputs": [
        {
          "internalType": "uint256",
          "name": "",
          "type": "uint256"
        },
        {
          "internalType": "string",
          "name": "",
          "type": "string"
        },
        {
          "internalType": "uint256",
          "name": "",
          "type": "uint256"
        },
        {
          "internalType": "uint256",
          "name": "",
          "type": "uint256"
        },
        {
          "internalType": "string",
          "name": "",
          "type": "string"
        },
        {
          "internalType": "enum Structure.State",
          "name": "",
          "type": "uint8"
        },
        {
          "internalType": "address",
          "name": "",
          "type": "address"
        },
        {
          "internalType": "string",
          "name": "",
          "type": "string"
        }
      ],
      "payable": false,
      "stateMutability": "view",
      "type": "function"
    },
    {
      "constant": true,
      "inputs": [
        {
          "internalType": "uint256",
          "name": "_uid",
          "type": "uint256"
        },
        {
          "internalType": "string",
          "name": "_type",
          "type": "string"
        },
        {
          "internalType": "uint256",
          "name": "i",
          "type": "uint256"
        }
      ],
      "name": "fetchProductPart3",
      "outputs": [
        {
          "internalType": "string",
          "name": "",
          "type": "string"
        },
        {
          "internalType": "address",
          "name": "",
          "type": "address"
        },
        {
          "internalType": "string",
          "name": "",
          "type": "string"
        },
        {
          "internalType": "string",
          "name": "",
          "type": "string"
        },
        {
          "internalType": "address",
          "name": "",
          "type": "address"
        },
        {
          "internalType": "string",
          "name": "",
          "type": "string"
        }
      ],
      "payable": false,
      "stateMutability": "view",
      "type": "function"
    },
    {
      "constant": true,
      "inputs": [],
      "name": "fetchProductCount",
      "outputs": [
        {
          "internalType": "uint256",
          "name": "",
          "type": "uint256"
        }
      ],
      "payable": false,
      "stateMutability": "view",
      "type": "function"
    },
    {
      "constant": true,
      "inputs": [
        {
          "internalType": "uint256",
          "name": "_uid",
          "type": "uint256"
        }
      ],
      "name": "fetchProductHistoryLength",
      "outputs": [
        {
          "internalType": "uint256",
          "name": "",
          "type": "uint256"
        }
      ],
      "payable": false,
      "stateMutability": "view",
      "type": "function"
    },
    {
      "constant": true,
      "inputs": [
        {
          "internalType": "uint256",
          "name": "_uid",
          "type": "uint256"
        }
      ],
      "name": "fetchProductState",
      "outputs": [
        {
          "internalType": "enum Structure.State",
          "name": "",
          "type": "uint8"
        }
      ],
      "payable": false,
      "stateMutability": "view",
      "type": "function"
    },
    {
      "constant": false,
      "inputs": [
        {
          "internalType": "string",
          "name": "tran",
          "type": "string"
        }
      ],
      "name": "setTransactionHashOnManufacture",
      "outputs": [],
      "payable": false,
      "stateMutability": "nonpayable",
      "type": "function"
    },
    {
      "constant": false,
      "inputs": [
        {
          "internalType": "uint256",
          "name": "_uid",
          "type": "uint256"
        },
        {
          "internalType": "string",
          "name": "tran",
          "type": "string"
        }
      ],
      "name": "setTransactionHash",
      "outputs": [],
      "payable": false,
      "stateMutability": "nonpayable",
      "type": "function"
    }
  ],
  "bytecode": "0x6080604052600280546001600160a01b0319163317905560018080556000556146338061002d6000396000f3fe608060405234801561001057600080fd5b506004361061018d5760003560e01c80638290f859116100de578063adff0b8b11610097578063e55128ea11610071578063e55128ea14611179578063f16791b31461121d578063f514ce3614611225578063faec0ac61461122d5761018d565b8063adff0b8b14610feb578063c8ad923114611008578063e2f1fe14146111385761018d565b80638290f85914610bac578063924fbd8c14610bd257806397c095fe14610bef57806398c9588914610c155780639a70836414610e9e578063aacd43ee14610ebb5761018d565b80636000ada11161014b57806371d6fa051161012557806371d6fa0514610aa15780637217eb2e14610ac757806372df397e14610ae4578063786ea16114610b015761018d565b80636000ada1146105b0578063658db497146105d65780636f1fe8d71461086d5761018d565b80623375b714610192578063024edf9a146104de5780630c66df671461051857806331d4663614610535578063405ba7ef1461055b578063453dd4af1461058a575b600080fd5b6104dc60048036036101008110156101a957600080fd5b810190602081018135600160201b8111156101c357600080fd5b8201836020820111156101d557600080fd5b803590602001918460018302840111600160201b831117156101f657600080fd5b91908080601f0160208091040260200160405190810160405280939291908181526020018383808284376000920191909152509295949360208101935035915050600160201b81111561024857600080fd5b82018360208201111561025a57600080fd5b803590602001918460018302840111600160201b8311171561027b57600080fd5b91908080601f0160208091040260200160405190810160405280939291908181526020018383808284376000920191909152509295949360208101935035915050600160201b8111156102cd57600080fd5b8201836020820111156102df57600080fd5b803590602001918460018302840111600160201b8311171561030057600080fd5b91908080601f0160208091040260200160405190810160405280939291908181526020018383808284376000920191909152509295949360208101935035915050600160201b81111561035257600080fd5b82018360208201111561036457600080fd5b803590602001918460018302840111600160201b8311171561038557600080fd5b91908080601f0160208091040260200160405190810160405280939291908181526020018383808284376000920191909152509295949360208101935035915050600160201b8111156103d757600080fd5b8201836020820111156103e957600080fd5b803590602001918460018302840111600160201b8311171561040a57600080fd5b91908080601f0160208091040260200160405190810160405280939291908181526020018383808284376000920191909152509295843595602086013595919450925060608101915060400135600160201b81111561046857600080fd5b82018360208201111561047a57600080fd5b803590602001918460018302840111600160201b8311171561049b57600080fd5b91908080601f016020809104026020016040519081016040528093929190818152602001838380828437600092019190915250929550611253945050505050565b005b610504600480360360208110156104f457600080fd5b50356001600160a01b03166117f9565b604080519115158252519081900360200190f35b6104dc6004803603602081101561052e57600080fd5b5035611834565b6104dc6004803603602081101561054b57600080fd5b50356001600160a01b0316611bcc565b6105786004803603602081101561057157600080fd5b5035611c18565b60408051918252519081900360200190f35b6104dc600480360360208110156105a057600080fd5b50356001600160a01b0316611c2a565b610504600480360360208110156105c657600080fd5b50356001600160a01b0316611c7a565b610683600480360360608110156105ec57600080fd5b81359190810190604081016020820135600160201b81111561060d57600080fd5b82018360208201111561061f57600080fd5b803590602001918460018302840111600160201b8311171561064057600080fd5b91908080601f0160208091040260200160405190810160405280939291908181526020018383808284376000920191909152509295505091359250611cae915050565b60405180898152602001888152602001876001600160a01b03166001600160a01b03168152602001866001600160a01b03166001600160a01b0316815260200180602001806020018060200180602001858103855289818151815260200191508051906020019080838360005b838110156107085781810151838201526020016106f0565b50505050905090810190601f1680156107355780820380516001836020036101000a031916815260200191505b5085810384528851815288516020918201918a019080838360005b83811015610768578181015183820152602001610750565b50505050905090810190601f1680156107955780820380516001836020036101000a031916815260200191505b50858103835287518152875160209182019189019080838360005b838110156107c85781810151838201526020016107b0565b50505050905090810190601f1680156107f55780820380516001836020036101000a031916815260200191505b50858103825286518152865160209182019188019080838360005b83811015610828578181015183820152602001610810565b50505050905090810190601f1680156108555780820380516001836020036101000a031916815260200191505b509c5050505050505050505050505060405180910390f35b61091a6004803603606081101561088357600080fd5b81359190810190604081016020820135600160201b8111156108a457600080fd5b8201836020820111156108b657600080fd5b803590602001918460018302840111600160201b831117156108d757600080fd5b91908080601f0160208091040260200160405190810160405280939291908181526020018383808284376000920191909152509295505091359250612049915050565b60405180898152602001806020018881526020018781526020018060200186600881111561094457fe5b60ff168152602001856001600160a01b03166001600160a01b031681526020018060200184810384528b818151815260200191508051906020019080838360005b8381101561099d578181015183820152602001610985565b50505050905090810190601f1680156109ca5780820380516001836020036101000a031916815260200191505b5084810383528851815288516020918201918a019080838360005b838110156109fd5781810151838201526020016109e5565b50505050905090810190601f168015610a2a5780820380516001836020036101000a031916815260200191505b50848103825285518152855160209182019187019080838360005b83811015610a5d578181015183820152602001610a45565b50505050905090810190601f168015610a8a5780820380516001836020036101000a031916815260200191505b509b50505050505050505050505060405180910390f35b61050460048036036020811015610ab757600080fd5b50356001600160a01b0316612309565b6104dc60048036036020811015610add57600080fd5b5035612343565b6104dc60048036036020811015610afa57600080fd5b50356126f4565b6104dc60048036036040811015610b1757600080fd5b81359190810190604081016020820135600160201b811115610b3857600080fd5b820183602082011115610b4a57600080fd5b803590602001918460018302840111600160201b83111715610b6b57600080fd5b91908080601f016020809104026020016040519081016040528093929190818152602001838380828437600092019190915250929550612ac7945050505050565b6104dc60048036036020811015610bc257600080fd5b50356001600160a01b0316612b13565b6104dc60048036036020811015610be857600080fd5b5035612b5d565b61050460048036036020811015610c0557600080fd5b50356001600160a01b0316612f51565b610cc260048036036060811015610c2b57600080fd5b81359190810190604081016020820135600160201b811115610c4c57600080fd5b820183602082011115610c5e57600080fd5b803590602001918460018302840111600160201b83111715610c7f57600080fd5b91908080601f0160208091040260200160405190810160405280939291908181526020018383808284376000920191909152509295505091359250612f8a915050565b6040518080602001876001600160a01b03166001600160a01b031681526020018060200180602001866001600160a01b03166001600160a01b031681526020018060200185810385528b818151815260200191508051906020019080838360005b83811015610d3b578181015183820152602001610d23565b50505050905090810190601f168015610d685780820380516001836020036101000a031916815260200191505b5085810384528951815289516020918201918b019080838360005b83811015610d9b578181015183820152602001610d83565b50505050905090810190601f168015610dc85780820380516001836020036101000a031916815260200191505b5085810383528851815288516020918201918a019080838360005b83811015610dfb578181015183820152602001610de3565b50505050905090810190601f168015610e285780820380516001836020036101000a031916815260200191505b50858103825286518152865160209182019188019080838360005b83811015610e5b578181015183820152602001610e43565b50505050905090810190601f168015610e885780820380516001836020036101000a031916815260200191505b509a505050505050505050505060405180910390f35b6104dc60048036036020811015610eb457600080fd5b5035613311565b6104dc60048036036060811015610ed157600080fd5b81359190810190604081016020820135600160201b811115610ef257600080fd5b820183602082011115610f0457600080fd5b803590602001918460018302840111600160201b83111715610f2557600080fd5b91908080601f0160208091040260200160405190810160405280939291908181526020018383808284376000920191909152509295949360208101935035915050600160201b811115610f7757600080fd5b820183602082011115610f8957600080fd5b803590602001918460018302840111600160201b83111715610faa57600080fd5b91908080601f0160208091040260200160405190810160405280939291908181526020018383808284376000920191909152509295506136c0945050505050565b6104dc6004803603602081101561100157600080fd5b5035613ad8565b6104dc6004803603606081101561101e57600080fd5b81359190810190604081016020820135600160201b81111561103f57600080fd5b82018360208201111561105157600080fd5b803590602001918460018302840111600160201b8311171561107257600080fd5b91908080601f0160208091040260200160405190810160405280939291908181526020018383808284376000920191909152509295949360208101935035915050600160201b8111156110c457600080fd5b8201836020820111156110d657600080fd5b803590602001918460018302840111600160201b831117156110f757600080fd5b91908080601f016020809104026020016040519081016040528093929190818152602001838380828437600092019190915250929550613e97945050505050565b6111556004803603602081101561114e57600080fd5b50356142c5565b6040518082600881111561116557fe5b60ff16815260200191505060405180910390f35b6104dc6004803603602081101561118f57600080fd5b810190602081018135600160201b8111156111a957600080fd5b8201836020820111156111bb57600080fd5b803590602001918460018302840111600160201b831117156111dc57600080fd5b91908080601f0160208091040260200160405190810160405280939291908181526020018383808284376000920191909152509295506142e4945050505050565b610578614331565b610578614338565b6104dc6004803603602081101561124357600080fd5b50356001600160a01b031661433e565b61125c33611c7a565b61126557600080fd5b6000546112706143f5565b600154602080830191909152828252608080830180519092018c9052815160409081018c905282516060018b9052825190910189905281514260a090910152339083018190529051526112c28161438c565b600060608201526112d681878787876143d4565b60008281526003602090815260409182902083518155908301516001820155908201516002820180546001600160a01b0319166001600160a01b03909216919091178082556060840151849392909160ff60a01b1916600160a01b83600881111561133d57fe5b0217905550608082015180516003830180546001600160a01b0319166001600160a01b0390921691909117815560208083015180516113829260048701920190614460565b506040820151805161139e916002840191602090910190614460565b50606082015180516113ba916003840191602090910190614460565b50608082015180516113d6916004840191602090910190614460565b5060a0918201516005919091015582015180516009830180546001600160a01b0319166001600160a01b03909216919091178155602080830151805161142292600a8701920190614460565b506040820151805161143e916002840191602090910190614460565b50505060c082015180518051600c84019161145e91839160200190614460565b506020828101516001830155604083015160028301556060830151805161148b9260038501920190614460565b50505060e082015180516010830180546001600160a01b0319166001600160a01b0390921691909117815560208083015180516114ce9260118701920190614460565b50604082015180516114ea916002840191602090910190614460565b5050506101008201516013820180546001600160a01b0319166001600160a01b039092169190911790556101208201518051611530916014840191602090910190614460565b50505060008281526004602090815260408083208054600180820180845592865294849020865160159092020190815592850151938301939093558301516002820180546001600160a01b0319166001600160a01b03909216919091178082556060850151859392909160ff60a01b1916600160a01b8360088111156115b257fe5b0217905550608082015180516003830180546001600160a01b0319166001600160a01b0390921691909117815560208083015180516115f79260048701920190614460565b5060408201518051611613916002840191602090910190614460565b506060820151805161162f916003840191602090910190614460565b506080820151805161164b916004840191602090910190614460565b5060a0918201516005919091015582015180516009830180546001600160a01b0319166001600160a01b03909216919091178155602080830151805161169792600a8701920190614460565b50604082015180516116b3916002840191602090910190614460565b50505060c082015180518051600c8401916116d391839160200190614460565b50602082810151600183015560408301516002830155606083015180516117009260038501920190614460565b50505060e082015180516010830180546001600160a01b0319166001600160a01b0390921691909117815560208083015180516117439260118701920190614460565b506040820151805161175f916002840191602090910190614460565b5050506101008201516013820180546001600160a01b0319166001600160a01b0390921691909117905561012082015180516117a5916014840191602090910190614460565b5050600180548101815560008054909101905550506040805183815290517fd29d8a68ca7c8c74be5579719d445aabfe230ed6e6a83aff475a663500eb76099181900360200190a150505050505050505050565b60006001600160a01b03821661180e57600080fd5b506001600160a01b03166000908152600560205260409020546301000000900460ff1690565b600081815260036020819052604090912001546001600160a01b031633811461185c57600080fd5b61186533611c7a565b61186e57600080fd5b60008281526003602081815260408084206002808201805460ff60a01b19908116600160a11b17825560048652938720958552855460018181018089559789529590972083546015909802019687558483015494870194909455835490860180546001600160a01b0319166001600160a01b0390921691909117808255935494959194919360ff600160a01b938490041693919291169083600881111561191157fe5b02179055506003828101805491830180546001600160a01b0319166001600160a01b03909316929092178255600480850180549293926119679286019190600260001960018316156101000201909116046144de565b506002828101805461198c9284810192916000196101006001831615020116046144de565b50600382018160030190805460018160011615610100020316600290046119b49291906144de565b50600482018160040190805460018160011615610100020316600290046119dc9291906144de565b506005918201549101556009828101805491830180546001600160a01b0319166001600160a01b03909316929092178255600a8085018054929392611a379286019190600260001960018316156101000201909116046144de565b5060028281018054611a5c9284810192916000196101006001831615020116046144de565b505050600c82810180549091830190611a8b9082908490600260001961010060018416150201909116046144de565b50600182015481600101556002820154816002015560038201816003019080546001816001161561010002031660029004611ac79291906144de565b5050506010828101805491830180546001600160a01b0319166001600160a01b0390931692909217825560118085018054929392611b1b9286019190600260001960018316156101000201909116046144de565b5060028281018054611b409284810192916000196101006001831615020116046144de565b50505060138281015490820180546001600160a01b0319166001600160a01b0390921691909117905560148083018054611b909284019190600260001960018316156101000201909116046144de565b50506040805185815290517f25727bef8a186dd95a062151451f2d651551b53124c18208d7653b1217ae31ba9350908190036020019150a15050565b6001600160a01b038116611bdf57600080fd5b611be881612f51565b15611bf257600080fd5b6001600160a01b03166000908152600560205260409020805461ff001916610100179055565b60009081526004602052604090205490565b6001600160a01b038116611c3d57600080fd5b611c4681612309565b15611c5057600080fd5b6001600160a01b03166000908152600560205260409020805463ff00000019166301000000179055565b60006001600160a01b038216611c8f57600080fd5b506001600160a01b031660009081526005602052604090205460ff1690565b600083815260036020526040812054819081908190606090819081908190611cd557600080fd5b60008b815260036020908152604091829020825180840190935260078352661c1c9bd91d58dd60ca1b928201929092528b51908c01207f36a4a183f82db747ab399ca476ab84cc3def6abe3ac63748d03b4584af38d0571415611d42575060008b81526003602052604090205b604080518082019091526007815266686973746f727960c81b6020918201528b51908c01207f5cb4ee416d23b95cd5367c15d6b361ec02394b3d48d629418b0e5e7eda6758581415611db95760008c815260046020526040902080548b908110611da857fe5b906000526020600020906015020190505b8054600180830154600280850154600386015460048701805460408051602061010099841615999099026000190190921695909504601f810188900488028201880190955284815294956001600160a01b039384169593909216939092600589019260068a019260078b019291869190830182828015611e7a5780601f10611e4f57610100808354040283529160200191611e7a565b820191906000526020600020905b815481529060010190602001808311611e5d57829003601f168201915b5050865460408051602060026001851615610100026000190190941693909304601f810184900484028201840190925281815295995088945092508401905082828015611f085780601f10611edd57610100808354040283529160200191611f08565b820191906000526020600020905b815481529060010190602001808311611eeb57829003601f168201915b5050855460408051602060026001851615610100026000190190941693909304601f810184900484028201840190925281815295985087945092508401905082828015611f965780601f10611f6b57610100808354040283529160200191611f96565b820191906000526020600020905b815481529060010190602001808311611f7957829003601f168201915b5050845460408051602060026001851615610100026000190190941693909304601f8101849004840282018401909252818152959750869450925084019050828280156120245780601f10611ff957610100808354040283529160200191612024565b820191906000526020600020905b81548152906001019060200180831161200757829003601f168201915b5050505050905098509850985098509850985098509850509397509397509397509397565b60008381526003602052604081205460609082908190839082908190839061207057600080fd5b60008b815260036020908152604091829020825180840190935260078352661c1c9bd91d58dd60ca1b928201929092528b51908c01207f36a4a183f82db747ab399ca476ab84cc3def6abe3ac63748d03b4584af38d05714156120dd575060008b81526003602052604090205b604080518082019091526007815266686973746f727960c81b6020918201528b51908c01207f5cb4ee416d23b95cd5367c15d6b361ec02394b3d48d629418b0e5e7eda67585814156121545760008c815260046020526040902080548b90811061214357fe5b906000526020600020906015020190505b6008810154600d820154600e8301546002808501546009860154600c870180546040805160206101006001851615026000190190931696909604601f810183900483028701830190915280865291969594600f8a0194600160a01b900460ff16936001600160a01b031692600a8b01928991908301828280156122185780601f106121ed57610100808354040283529160200191612218565b820191906000526020600020905b8154815290600101906020018083116121fb57829003601f168201915b5050875460408051602060026001851615610100026000190190941693909304601f8101849004840282018401909252818152959c50899450925084019050828280156122a65780601f1061227b576101008083540402835291602001916122a6565b820191906000526020600020905b81548152906001019060200180831161228957829003601f168201915b5050845460408051602060026001851615610100026000190190941693909304601f8101849004840282018401909252818152959950869450925084019050828280156120245780601f10611ff957610100808354040283529160200191612024565b60006001600160a01b03821661231e57600080fd5b506001600160a01b031660009081526005602052604090205462010000900460ff1690565b806003600082815260036020526040902060020154600160a01b900460ff16600881111561236d57fe5b1461237757600080fd5b612380336117f9565b61238957600080fd5b60008281526003602081815260408084206013810180546001600160a01b031990811633179091556002808301805460ff60a01b19908116600160a21b1782556004875294882096865286546001818101808a55988a529690982084546015909902019788558584015495880195909555845490870180549092166001600160a01b0390911617808255935494959194919360ff600160a01b938490041693919291169083600881111561243957fe5b02179055506003828101805491830180546001600160a01b0319166001600160a01b039093169290921782556004808501805492939261248f9286019190600260001960018316156101000201909116046144de565b50600282810180546124b49284810192916000196101006001831615020116046144de565b50600382018160030190805460018160011615610100020316600290046124dc9291906144de565b50600482018160040190805460018160011615610100020316600290046125049291906144de565b506005918201549101556009828101805491830180546001600160a01b0319166001600160a01b03909316929092178255600a808501805492939261255f9286019190600260001960018316156101000201909116046144de565b50600282810180546125849284810192916000196101006001831615020116046144de565b505050600c828101805490918301906125b39082908490600260001961010060018416150201909116046144de565b506001820154816001015560028201548160020155600382018160030190805460018160011615610100020316600290046125ef9291906144de565b5050506010828101805491830180546001600160a01b0319166001600160a01b03909316929092178255601180850180549293926126439286019190600260001960018316156101000201909116046144de565b50600282810180546126689284810192916000196101006001831615020116046144de565b50505060138281015490820180546001600160a01b0319166001600160a01b03909216919091179055601480830180546126b89284019190600260001960018316156101000201909116046144de565b50506040805185815290517ffd054e59d299873fab61a3c67d86d3a139b75dcd5cd82894d8983fc5e2669c829350908190036020019150a15050565b806007600082815260036020526040902060020154600160a01b900460ff16600881111561271e57fe5b1461272857600080fd5b6000828152600360205260409020601301546001600160a01b031633811461274f57600080fd5b612758336117f9565b61276157600080fd5b6000838152600360208181526040808420600280820180546001600160a01b0319908116331760ff60a01b19908116600160a31b1783556004875294882096865286546001818101808a55988a529690982084546015909902019788558584015495880195909555805491870180549095166001600160a01b0390921691909117808555905494959194919360ff600160a01b938490041693909291169083600881111561280b57fe5b02179055506003828101805491830180546001600160a01b0319166001600160a01b03909316929092178255600480850180549293926128619286019190600260001960018316156101000201909116046144de565b50600282810180546128869284810192916000196101006001831615020116046144de565b50600382018160030190805460018160011615610100020316600290046128ae9291906144de565b50600482018160040190805460018160011615610100020316600290046128d69291906144de565b506005918201549101556009828101805491830180546001600160a01b0319166001600160a01b03909316929092178255600a80850180549293926129319286019190600260001960018316156101000201909116046144de565b50600282810180546129569284810192916000196101006001831615020116046144de565b505050600c828101805490918301906129859082908490600260001961010060018416150201909116046144de565b506001820154816001015560028201548160020155600382018160030190805460018160011615610100020316600290046129c19291906144de565b5050506010828101805491830180546001600160a01b0319166001600160a01b0390931692909217825560118085018054929392612a159286019190600260001960018316156101000201909116046144de565b5060028281018054612a3a9284810192916000196101006001831615020116046144de565b50505060138281015490820180546001600160a01b0319166001600160a01b0390921691909117905560148083018054612a8a9284019190600260001960018316156101000201909116046144de565b50506040805186815290517f8a746d5b91a9a334d1abbeee7d031aac6d5c59ea6e982ac06aef4346cce5749e9350908190036020019150a1505050565b600082815260046020526040812080546000198101908110612ae557fe5b9060005260206000209060150201905081816014019080519060200190612b0d929190614460565b50505050565b6001600160a01b038116612b2657600080fd5b612b2f81611c7a565b15612b3957600080fd5b6001600160a01b03166000908152600560205260409020805460ff19166001179055565b806006600082815260036020526040902060020154600160a01b900460ff166008811115612b8757fe5b14612b9157600080fd5b6000828152600360205260409020600201546001600160a01b0316338114612bb857600080fd5b6000838152600360205260409020601001546001600160a01b0316338114612bdf57600080fd5b612be833612309565b612bf157600080fd5b60008481526003602081815260408084206002808201805460ff60a01b19908116600760a01b17825560048652938720958552855460018181018089559789529590972083546015909802019687558483015494870194909455835490860180546001600160a01b0319166001600160a01b0390921691909117808255935494959194919360ff600160a01b9384900416939192911690836008811115612c9457fe5b02179055506003828101805491830180546001600160a01b0319166001600160a01b0390931692909217825560048085018054929392612cea9286019190600260001960018316156101000201909116046144de565b5060028281018054612d0f9284810192916000196101006001831615020116046144de565b5060038201816003019080546001816001161561010002031660029004612d379291906144de565b5060048201816004019080546001816001161561010002031660029004612d5f9291906144de565b506005918201549101556009828101805491830180546001600160a01b0319166001600160a01b03909316929092178255600a8085018054929392612dba9286019190600260001960018316156101000201909116046144de565b5060028281018054612ddf9284810192916000196101006001831615020116046144de565b505050600c82810180549091830190612e0e9082908490600260001961010060018416150201909116046144de565b50600182015481600101556002820154816002015560038201816003019080546001816001161561010002031660029004612e4a9291906144de565b5050506010828101805491830180546001600160a01b0319166001600160a01b0390931692909217825560118085018054929392612e9e9286019190600260001960018316156101000201909116046144de565b5060028281018054612ec39284810192916000196101006001831615020116046144de565b50505060138281015490820180546001600160a01b0319166001600160a01b0390921691909117905560148083018054612f139284019190600260001960018316156101000201909116046144de565b50506040805187815290517f65449425960320c05b911b073c8617a0cb61dff3d2737a142b71596ca8f580c99350908190036020019150a150505050565b60006001600160a01b038216612f6657600080fd5b506001600160a01b0316600090815260056020526040902054610100900460ff1690565b600083815260036020526040812054606091908290819083908290612fae57600080fd5b600089815260036020908152604091829020825180840190935260078352661c1c9bd91d58dd60ca1b928201929092528951908a01207f36a4a183f82db747ab399ca476ab84cc3def6abe3ac63748d03b4584af38d057141561301b575060008981526003602052604090205b604080518082019091526007815266686973746f727960c81b6020918201528951908a01207f5cb4ee416d23b95cd5367c15d6b361ec02394b3d48d629418b0e5e7eda67585814156130925760008a815260046020526040902080548990811061308157fe5b906000526020600020906015020190505b60108101546013820154600b8301805460408051602060026101006001861615026000190190941693909304601f810184900484028201840190925281815292946001600160a01b039081169460118801946012890194929091169260148901928891908301828280156131475780601f1061311c57610100808354040283529160200191613147565b820191906000526020600020905b81548152906001019060200180831161312a57829003601f168201915b5050875460408051602060026001851615610100026000190190941693909304601f8101849004840282018401909252818152959b50899450925084019050828280156131d55780601f106131aa576101008083540402835291602001916131d5565b820191906000526020600020905b8154815290600101906020018083116131b857829003601f168201915b5050865460408051602060026001851615610100026000190190941693909304601f8101849004840282018401909252818152959950889450925084019050828280156132635780601f1061323857610100808354040283529160200191613263565b820191906000526020600020905b81548152906001019060200180831161324657829003601f168201915b5050845460408051602060026001851615610100026000190190941693909304601f8101849004840282018401909252818152959850869450925084019050828280156132f15780601f106132c6576101008083540402835291602001916132f1565b820191906000526020600020905b8154815290600101906020018083116132d457829003601f168201915b505050505090509650965096509650965096505093975093979195509350565b8060008082815260036020526040902060020154600160a01b900460ff16600881111561333a57fe5b1461334457600080fd5b61334d33612f51565b61335657600080fd5b6000828152600360208181526040808420600981018054336001600160a01b03199182161790915560028083018054600160a01b60ff60a01b19918216811783556004885295892097875287546001818101808b55998b529790992085546015909a02019889558685015496890196909655805491880180546001600160a01b03909316929093169190911780835590549596929592949284900460ff16939192169083600881111561340557fe5b02179055506003828101805491830180546001600160a01b0319166001600160a01b039093169290921782556004808501805492939261345b9286019190600260001960018316156101000201909116046144de565b50600282810180546134809284810192916000196101006001831615020116046144de565b50600382018160030190805460018160011615610100020316600290046134a89291906144de565b50600482018160040190805460018160011615610100020316600290046134d09291906144de565b506005918201549101556009828101805491830180546001600160a01b0319166001600160a01b03909316929092178255600a808501805492939261352b9286019190600260001960018316156101000201909116046144de565b50600282810180546135509284810192916000196101006001831615020116046144de565b505050600c8281018054909183019061357f9082908490600260001961010060018416150201909116046144de565b506001820154816001015560028201548160020155600382018160030190805460018160011615610100020316600290046135bb9291906144de565b5050506010828101805491830180546001600160a01b0319166001600160a01b039093169290921782556011808501805492939261360f9286019190600260001960018316156101000201909116046144de565b50600282810180546136349284810192916000196101006001831615020116046144de565b50505060138281015490820180546001600160a01b0319166001600160a01b03909216919091179055601480830180546136849284019190600260001960018316156101000201909116046144de565b50506040805185815290517f9cb31fbbfbc6ba3db06d5763c206bedc9cc608f9c5cf4e56a858a279752000d39350908190036020019150a15050565b826005600082815260036020526040902060020154600160a01b900460ff1660088111156136ea57fe5b146136f457600080fd5b6136fd33612309565b61370657600080fd5b6000848152600360209081526040909120600281018054336001600160a01b031991821681179092556010830180549091169091179055845161375192601190920191860190614460565b506000848152600360209081526040909120835161377792601290920191850190614460565b5060008481526003602081815260408084206002808201805460ff60a01b19908116600360a11b17825560048652938720958552855460018181018089559789529590972083546015909802019687558483015494870194909455835490860180546001600160a01b0319166001600160a01b0390921691909117808255935494959194919360ff600160a01b938490041693919291169083600881111561381b57fe5b02179055506003828101805491830180546001600160a01b0319166001600160a01b03909316929092178255600480850180549293926138719286019190600260001960018316156101000201909116046144de565b50600282810180546138969284810192916000196101006001831615020116046144de565b50600382018160030190805460018160011615610100020316600290046138be9291906144de565b50600482018160040190805460018160011615610100020316600290046138e69291906144de565b506005918201549101556009828101805491830180546001600160a01b0319166001600160a01b03909316929092178255600a80850180549293926139419286019190600260001960018316156101000201909116046144de565b50600282810180546139669284810192916000196101006001831615020116046144de565b505050600c828101805490918301906139959082908490600260001961010060018416150201909116046144de565b506001820154816001015560028201548160020155600382018160030190805460018160011615610100020316600290046139d19291906144de565b5050506010828101805491830180546001600160a01b0319166001600160a01b0390931692909217825560118085018054929392613a259286019190600260001960018316156101000201909116046144de565b5060028281018054613a4a9284810192916000196101006001831615020116046144de565b50505060138281015490820180546001600160a01b0319166001600160a01b0390921691909117905560148083018054613a9a9284019190600260001960018316156101000201909116046144de565b50506040805187815290517f798abb1dd28aa4f27089284c0ccf4a8eccfed848a30cba7ff82f6f35338f958f9350908190036020019150a150505050565b6000818152600360205260409020600201546001600160a01b0316338114613aff57600080fd5b6000828152600360205260409020600901546001600160a01b0316338114613b2657600080fd5b613b2f33612f51565b613b3857600080fd5b60008381526003602081815260408084206002808201805460ff60a01b19908116600560a01b17825560048652938720958552855460018181018089559789529590972083546015909802019687558483015494870194909455835490860180546001600160a01b0319166001600160a01b0390921691909117808255935494959194919360ff600160a01b9384900416939192911690836008811115613bdb57fe5b02179055506003828101805491830180546001600160a01b0319166001600160a01b0390931692909217825560048085018054929392613c319286019190600260001960018316156101000201909116046144de565b5060028281018054613c569284810192916000196101006001831615020116046144de565b5060038201816003019080546001816001161561010002031660029004613c7e9291906144de565b5060048201816004019080546001816001161561010002031660029004613ca69291906144de565b506005918201549101556009828101805491830180546001600160a01b0319166001600160a01b03909316929092178255600a8085018054929392613d019286019190600260001960018316156101000201909116046144de565b5060028281018054613d269284810192916000196101006001831615020116046144de565b505050600c82810180549091830190613d559082908490600260001961010060018416150201909116046144de565b50600182015481600101556002820154816002015560038201816003019080546001816001161561010002031660029004613d919291906144de565b5050506010828101805491830180546001600160a01b0319166001600160a01b0390931692909217825560118085018054929392613de59286019190600260001960018316156101000201909116046144de565b5060028281018054613e0a9284810192916000196101006001831615020116046144de565b50505060138281015490820180546001600160a01b0319166001600160a01b0390921691909117905560148083018054613e5a9284019190600260001960018316156101000201909116046144de565b50506040805186815290517fe1b7921fb393db057ac1b91d06aa61a3cfa34bc891e751130153ce9f59f185929350908190036020019150a1505050565b826002600082815260036020526040902060020154600160a01b900460ff166008811115613ec157fe5b14613ecb57600080fd5b6000848152600360205260409020600901546001600160a01b0316338114613ef257600080fd5b613efb33612f51565b613f0457600080fd5b60008581526003602090815260409091206002810180546001600160a01b031916331790558551613f3d92600a90920191870190614460565b5060008581526003602090815260409091208451613f6392600b90920191860190614460565b5060008581526003602081815260408084206002808201805460ff60a01b19908116600360a01b17825560048652938720958552855460018181018089559789529590972083546015909802019687558483015494870194909455835490860180546001600160a01b0319166001600160a01b0390921691909117808255935494959194919360ff600160a01b938490041693919291169083600881111561400757fe5b02179055506003828101805491830180546001600160a01b0319166001600160a01b039093169290921782556004808501805492939261405d9286019190600260001960018316156101000201909116046144de565b50600282810180546140829284810192916000196101006001831615020116046144de565b50600382018160030190805460018160011615610100020316600290046140aa9291906144de565b50600482018160040190805460018160011615610100020316600290046140d29291906144de565b506005918201549101556009828101805491830180546001600160a01b0319166001600160a01b03909316929092178255600a808501805492939261412d9286019190600260001960018316156101000201909116046144de565b50600282810180546141529284810192916000196101006001831615020116046144de565b505050600c828101805490918301906141819082908490600260001961010060018416150201909116046144de565b506001820154816001015560028201548160020155600382018160030190805460018160011615610100020316600290046141bd9291906144de565b5050506010828101805491830180546001600160a01b0319166001600160a01b03909316929092178255601180850180549293926142119286019190600260001960018316156101000201909116046144de565b50600282810180546142369284810192916000196101006001831615020116046144de565b50505060138281015490820180546001600160a01b0319166001600160a01b03909216919091179055601480830180546142869284019190600260001960018316156101000201909116046144de565b50506040805188815290517ff8c7d4a21800bd07c09f5ff7e1f2ab832e861196645dc4017d211730bd754a689350908190036020019150a15050505050565b600090815260036020526040902060020154600160a01b900460ff1690565b6000805460001990810182526004602052604090912080548392810190811061430957fe5b9060005260206000209060150201601401908051906020019061432d929190614460565b5050565b6000545b90565b60005481565b6001600160a01b03811661435157600080fd5b61435a81612309565b1561436457600080fd5b6001600160a01b03166000908152600560205260409020805462ff0000191662010000179055565b60a0810180516000908190528151606060209182018190529251604090810184905260e085018051849052805190920184905290510182905261010083015261012090910152565b60c09094018051939093528251602001919091528151604001525160600152565b60408051610140810182526000808252602082018190529181018290529060608201908152602001614425614553565b8152602001614432614592565b815260200161443f6145bc565b815260200161444c614592565b815260006020820152606060409091015290565b828054600181600116156101000203166002900490600052602060002090601f016020900481019282601f106144a157805160ff19168380011785556144ce565b828001600101855582156144ce579182015b828111156144ce5782518255916020019190600101906144b3565b506144da9291506145e4565b5090565b828054600181600116156101000203166002900490600052602060002090601f016020900481019282601f1061451757805485556144ce565b828001600101855582156144ce57600052602060002091601f016020900482015b828111156144ce578254825591600101919060010190614538565b6040518060c0016040528060006001600160a01b0316815260200160608152602001606081526020016060815260200160608152602001600081525090565b604051806060016040528060006001600160a01b0316815260200160608152602001606081525090565b6040518060800160405280606081526020016000815260200160008152602001606081525090565b61433591905b808211156144da57600081556001016145ea56fea265627a7a72315820057eed6be3fb10a57a049f93412f876459bc29a3538718c250f9c189342bd0f064736f6c63430005100032",
  "source": "// SPDX-License-Identifier: MIT\npragma solidity >=0.4.21 <0.9.0;\n\nimport \"./Structure.sol\";\n\ncontract SupplyChain {\n    event ManufacturerAdded(address indexed _account);\n\n    //product code\n    uint256 public uid;\n    uint256 sku;\n\n    address owner;\n\n    mapping(uint256 => Structure.Product) products;\n    mapping(uint256 => Structure.ProductHistory) productHistory;\n    mapping(address => Structure.Roles) roles;\n\n    function hasManufacturerRole(address _account) public view returns (bool) {\n        require(_account != address(0));\n        return roles[_account].Manufacturer;\n    }\n\n    function addManufacturerRole(address _account) public {\n        require(_account != address(0));\n        require(!hasManufacturerRole(_account));\n\n        roles[_account].Manufacturer = true;\n    }\n\n    function hasAutoDealerRole(address _account) public view returns (bool) {\n        require(_account != address(0));\n        return roles[_account].AutoDealer;\n    }\n\n    function addAutoDealerRole(address _account) public {\n        require(_account != address(0));\n        require(!hasAutoDealerRole(_account));\n\n        roles[_account].AutoDealer = true;\n    }\n\n    function haslogisticsCompanyRole(address _account) public view returns (bool) {\n        require(_account != address(0));\n        return roles[_account].logisticsCompany;\n    }\n\n    function addlogisticsCompanyRole(address _account) public {\n        require(_account != address(0));\n        require(!haslogisticsCompanyRole(_account));\n\n        roles[_account].logisticsCompany = true;\n    }\n\n    function hasCustomerRole(address _account) public view returns (bool) {\n        require(_account != address(0));\n        return roles[_account].Customer;\n    }\n\n    function addCustomerRole(address _account) public {\n        require(_account != address(0));\n        require(!haslogisticsCompanyRole(_account));\n\n        roles[_account].Customer = true;\n    }\n\n    constructor() public payable {\n        owner = msg.sender;\n        sku = 1;\n        uid = 1;\n    }\n\n    event Manufactured(uint256 uid);\n    event PurchasedByAutoDealer(uint256 uid);\n    event ShippedByManufacturer(uint256 uid);\n    event ReceivedByAutoDealer(uint256 uid);\n    event PurchasedByCustomer(uint256 uid);\n    event ShippedByAutoDealer(uint256 uid);\n    event ReceivedBylogisticsCompany(uint256 uid);\n    event ShippedBylogisticsCompany(uint256 uid);\n    event ReceivedByCustomer(uint256 uid);\n\n    modifier verifyAddress(address add) {\n        require(msg.sender == add);\n        _;\n    }\n\n    modifier manufactured(uint256 _uid) {\n        require(products[_uid].productState == Structure.State.Manufactured);\n        _;\n    }\n\n    modifier shippedByManufacturer(uint256 _uid) {\n        require(\n            products[_uid].productState == Structure.State.ShippedByManufacturer\n        );\n        _;\n    }\n\n    modifier receivedByAutoDealer(uint256 _uid) {\n        require(\n            products[_uid].productState == Structure.State.ReceivedByAutoDealer\n        );\n        _;\n    }\n\n    modifier purchasedByCustomer(uint256 _uid) {\n        require(\n            products[_uid].productState == Structure.State.PurchasedByCustomer\n        );\n        _;\n    }\n\n    modifier shippedByAutoDealer(uint256 _uid) {\n        require(\n            products[_uid].productState == Structure.State.ShippedByAutoDealer\n        );\n        _;\n    }\n\n    modifier receivedBylogisticsCompany(uint256 _uid) {\n        require(\n            products[_uid].productState == Structure.State.ReceivedBylogisticsCompany\n        );\n        _;\n    }\n\n    modifier shippedBylogisticsCompany(uint256 _uid) {\n        require(\n            products[_uid].productState == Structure.State.ShippedBylogisticsCompany\n        );\n        _;\n    }\n\n    modifier receivedByCustomer(uint256 _uid) {\n        require(\n            products[_uid].productState == Structure.State.ReceivedByCustomer\n        );\n        _;\n    }\n\n    function manufactureEmptyInitialize(Structure.Product memory product)\n        internal\n        pure\n    {\n        address autoDealer;\n        string memory transaction;\n        string memory autoDealerLongitude;\n        string memory autoDealerLatitude;\n\n        address logisticsCompany;\n        string memory logisticsCompanyLongitude;\n        string memory logisticsCompanyLatitude;\n        address customer;\n\n        product.autodealer.autoDealer = autoDealer;\n        product.autodealer.autoDealerLongitude = autoDealerLongitude;\n        product.autodealer.autoDealerLatitude = autoDealerLatitude;\n\n        product.logisticscompany.logisticsCompany = logisticsCompany;\n        product.logisticscompany.logisticsCompanyLongitude = logisticsCompanyLongitude;\n        product.logisticscompany.logisticsCompanyLatitude = logisticsCompanyLatitude;\n\n        product.customer = customer;\n        product.transaction = transaction;\n    }\n\n    function manufactureProductInitialize(\n        Structure.Product memory product,\n        string memory productName,\n        uint256 productCode,\n        uint256 productPrice,\n        string memory productCategory\n    ) internal pure {\n        product.productdet.productName = productName;\n        product.productdet.productCode = productCode;\n        product.productdet.productPrice = productPrice;\n        product.productdet.productCategory = productCategory;\n    }\n\n    ///@dev STEP 1 : Manufactured a product.\n    function manufactureProduct(\n        string memory manufacturerName,\n        string memory manufacturerDetails,\n        string memory manufacturerLongitude,\n        string memory manufacturerLatitude,\n        string memory productName,\n        uint256 productCode,\n        uint256 productPrice,\n        string memory productCategory\n    ) public {\n        require(hasManufacturerRole(msg.sender));\n        uint256 _uid = uid;\n        Structure.Product memory product;\n        product.sku = sku;\n        product.uid = _uid;\n        product.manufacturer.manufacturerName = manufacturerName;\n        product.manufacturer.manufacturerDetails = manufacturerDetails;\n        product.manufacturer.manufacturerLongitude = manufacturerLongitude;\n        product.manufacturer.manufacturerLatitude = manufacturerLatitude;\n        product.manufacturer.manufacturedDate = block.timestamp;\n\n        product.owner = msg.sender;\n        product.manufacturer.manufacturer = msg.sender;\n\n        manufactureEmptyInitialize(product);\n\n        product.productState = Structure.State.Manufactured;\n\n        manufactureProductInitialize(\n            product,\n            productName,\n            productCode,\n            productPrice,\n            productCategory\n        );\n\n        products[_uid] = product;\n\n        productHistory[_uid].history.push(product);\n\n        sku++;\n        uid = uid + 1;\n\n        emit Manufactured(_uid);\n    }\n\n    ///@dev STEP 2 : Purchase of manufactured product by Auto Dealer.\n    function purchaseByAutoDealer(uint256 _uid) public manufactured(_uid) {\n        require(hasAutoDealerRole(msg.sender));\n        products[_uid].autodealer.autoDealer = msg.sender;\n        products[_uid].productState = Structure.State.PurchasedByAutoDealer;\n        productHistory[_uid].history.push(products[_uid]);\n\n        emit PurchasedByAutoDealer(_uid);\n    }\n\n    ///@dev STEP 3 : Shipping of purchased product to Auto Dealer.\n    function shipToAutoDealer(uint256 _uid)\n        public\n        verifyAddress(products[_uid].manufacturer.manufacturer)\n    {\n        require(hasManufacturerRole(msg.sender));\n        products[_uid].productState = Structure.State.ShippedByManufacturer;\n        productHistory[_uid].history.push(products[_uid]);\n\n        emit ShippedByManufacturer(_uid);\n    }\n\n    ///@dev STEP 4 : Received the purchased product shipped by Manufacturer.\n    function receiveByAutoDealer(\n        uint256 _uid,\n        string memory autoDealerLongitude,\n        string memory autoDealerLatitude\n    )\n        public\n        shippedByManufacturer(_uid)\n        verifyAddress(products[_uid].autodealer.autoDealer)\n    {\n        require(hasAutoDealerRole(msg.sender));\n        products[_uid].owner = msg.sender;\n        products[_uid].autodealer.autoDealerLongitude = autoDealerLongitude;\n        products[_uid].autodealer.autoDealerLatitude = autoDealerLatitude;\n        products[_uid].productState = Structure.State.ReceivedByAutoDealer;\n        productHistory[_uid].history.push(products[_uid]);\n\n        emit ReceivedByAutoDealer(_uid);\n    }\n\n    ///@dev STEP 5 : Purchase of a product at auto dealer by Customer.\n    function purchaseByCustomer(uint256 _uid)\n        public\n        receivedByAutoDealer(_uid)\n    {\n        require(hasCustomerRole(msg.sender));\n        products[_uid].customer = msg.sender;\n        products[_uid].productState = Structure.State.PurchasedByCustomer;\n        productHistory[_uid].history.push(products[_uid]);\n\n        emit PurchasedByCustomer(_uid);\n    }\n\n    ///@dev STEP 7 : Shipping of product by auto dealer purchased by customer.\n    function shipByAutoDealer(uint256 _uid)\n        public\n        verifyAddress(products[_uid].owner)\n        verifyAddress(products[_uid].autodealer.autoDealer)\n    {\n        require(hasAutoDealerRole(msg.sender));\n        products[_uid].productState = Structure.State.ShippedByAutoDealer;\n        productHistory[_uid].history.push(products[_uid]);\n\n        emit ShippedByAutoDealer(_uid);\n    }\n\n    ///@dev STEP 8 : Receiveing of product by logistics company purchased by customer.\n    function receiveBylogisticsCompany(\n        uint256 _uid,\n        string memory logisticsCompanyLongitude,\n        string memory logisticsCompanyLatitude\n    ) public shippedByAutoDealer(_uid) {\n        require(haslogisticsCompanyRole(msg.sender));\n        products[_uid].owner = msg.sender;\n        products[_uid].logisticscompany.logisticsCompany = msg.sender;\n        products[_uid].logisticscompany.logisticsCompanyLongitude = logisticsCompanyLongitude;\n        products[_uid].logisticscompany.logisticsCompanyLatitude = logisticsCompanyLatitude;\n        products[_uid].productState = Structure.State.ReceivedBylogisticsCompany;\n        productHistory[_uid].history.push(products[_uid]);\n\n        emit ReceivedBylogisticsCompany(_uid);\n    }\n\n    ///@dev STEP 9 : Shipping of product by logistics company purchased by customer.\n    function shipBylogisticsCompany(uint256 _uid)\n        public\n        receivedBylogisticsCompany(_uid)\n        verifyAddress(products[_uid].owner)\n        verifyAddress(products[_uid].logisticscompany.logisticsCompany)\n    {\n        require(haslogisticsCompanyRole(msg.sender));\n        products[_uid].productState = Structure.State.ShippedBylogisticsCompany;\n        productHistory[_uid].history.push(products[_uid]);\n\n        emit ShippedBylogisticsCompany(_uid);\n    }\n\n    ///@dev STEP 10 : Shipping of product by logistics company purchased by customer.\n    function receiveByCustomer(uint256 _uid)\n        public\n        shippedBylogisticsCompany(_uid)\n        verifyAddress(products[_uid].customer)\n    {\n        require(hasCustomerRole(msg.sender));\n        products[_uid].owner = msg.sender;\n        products[_uid].productState = Structure.State.ReceivedByCustomer;\n        productHistory[_uid].history.push(products[_uid]);\n\n        emit ReceivedByCustomer(_uid);\n    }\n\n    ///@dev Fetch product\n    function fetchProductPart1(\n        uint256 _uid,\n        string memory _type,\n        uint256 i\n    )\n        public\n        view\n        returns (\n            uint256,\n            uint256,\n            address,\n            address,\n            string memory,\n            string memory,\n            string memory,\n            string memory\n        )\n    {\n        require(products[_uid].uid != 0);\n        Structure.Product storage product = products[_uid];\n        if (keccak256(bytes(_type)) == keccak256(bytes(\"product\"))) {\n            product = products[_uid];\n        }\n        if (keccak256(bytes(_type)) == keccak256(bytes(\"history\"))) {\n            product = productHistory[_uid].history[i];\n        }\n        return (\n            product.uid,\n            product.sku,\n            product.owner,\n            product.manufacturer.manufacturer,\n            product.manufacturer.manufacturerName,\n            product.manufacturer.manufacturerDetails,\n            product.manufacturer.manufacturerLongitude,\n            product.manufacturer.manufacturerLatitude\n        );\n    }\n\n    ///@dev Fetch product\n    function fetchProductPart2(\n        uint256 _uid,\n        string memory _type,\n        uint256 i\n    )\n        public\n        view\n        returns (\n            uint256,\n            string memory,\n            uint256,\n            uint256,\n            string memory,\n            Structure.State,\n            address,\n            string memory\n        )\n    {\n        require(products[_uid].uid != 0);\n        Structure.Product storage product = products[_uid];\n        if (keccak256(bytes(_type)) == keccak256(bytes(\"product\"))) {\n            product = products[_uid];\n        }\n        if (keccak256(bytes(_type)) == keccak256(bytes(\"history\"))) {\n            product = productHistory[_uid].history[i];\n        }\n        return (\n            product.manufacturer.manufacturedDate,\n            product.productdet.productName,\n            product.productdet.productCode,\n            product.productdet.productPrice,\n            product.productdet.productCategory,\n            product.productState,\n            product.autodealer.autoDealer,\n            product.autodealer.autoDealerLongitude\n        );\n    }\n\n    function fetchProductPart3(\n        uint256 _uid,\n        string memory _type,\n        uint256 i\n    )\n        public\n        view\n        returns (\n            string memory,\n            address,\n            string memory,\n            string memory,\n            address,\n            string memory\n        )\n    {\n        require(products[_uid].uid != 0);\n        Structure.Product storage product = products[_uid];\n        if (keccak256(bytes(_type)) == keccak256(bytes(\"product\"))) {\n            product = products[_uid];\n        }\n        if (keccak256(bytes(_type)) == keccak256(bytes(\"history\"))) {\n            product = productHistory[_uid].history[i];\n        }\n        return (\n            product.autodealer.autoDealerLatitude,\n            product.logisticscompany.logisticsCompany,\n            product.logisticscompany.logisticsCompanyLongitude,\n            product.logisticscompany.logisticsCompanyLatitude,\n            product.customer,\n            product.transaction\n        );\n    }\n\n    function fetchProductCount() public view returns (uint256) {\n        return uid;\n    }\n\n    function fetchProductHistoryLength(uint256 _uid)\n        public\n        view\n        returns (uint256)\n    {\n        return productHistory[_uid].history.length;\n    }\n\n    function fetchProductState(uint256 _uid)\n        public\n        view\n        returns (Structure.State)\n    {\n        return products[_uid].productState;\n    }\n\n    function setTransactionHashOnManufacture(string memory tran) public {\n        productHistory[uid - 1].history[\n            productHistory[uid - 1].history.length - 1\n        ]\n            .transaction = tran;\n    }\n\n    function setTransactionHash(uint256 _uid, string memory tran) public {\n        Structure.Product storage p =\n            productHistory[_uid].history[\n                productHistory[_uid].history.length - 1\n            ];\n        p.transaction = tran;\n    }\n}\n",
  "sourcePath": "C:\\Users\\LEGION\\Desktop\\Desktop\\Final\\contracts\\SupplyChain.sol",
  "compiler": {
    "name": "solc",
    "version": "0.5.16+commit.9c3226ce.Emscripten.clang"
  },
  "schemaVersion": "3.4.16",
  "updatedAt": "2023-11-27T13:07:31.254Z",
  "networkType": "ethereum",
  "devdoc": {
    "methods": {
      "fetchProductPart1(uint256,string,uint256)": {
        "details": "Fetch product"
      },
      "fetchProductPart2(uint256,string,uint256)": {
        "details": "Fetch product"
      },
      "manufactureProduct(string,string,string,string,string,uint256,uint256,string)": {
        "details": "STEP 1 : Manufactured a product."
      },
      "purchaseByAutoDealer(uint256)": {
        "details": "STEP 2 : Purchase of manufactured product by Auto Dealer."
      },
      "purchaseByCustomer(uint256)": {
        "details": "STEP 5 : Purchase of a product at auto dealer by Customer."
      },
      "receiveByAutoDealer(uint256,string,string)": {
        "details": "STEP 4 : Received the purchased product shipped by Manufacturer."
      },
      "receiveByCustomer(uint256)": {
        "details": "STEP 10 : Shipping of product by logistics company purchased by customer."
      },
      "receiveBylogisticsCompany(uint256,string,string)": {
        "details": "STEP 8 : Receiveing of product by logistics company purchased by customer."
      },
      "shipByAutoDealer(uint256)": {
        "details": "STEP 7 : Shipping of product by auto dealer purchased by customer."
      },
      "shipBylogisticsCompany(uint256)": {
        "details": "STEP 9 : Shipping of product by logistics company purchased by customer."
      },
      "shipToAutoDealer(uint256)": {
        "details": "STEP 3 : Shipping of purchased product to Auto Dealer."
      }
    }
  },
  "userdoc": {
    "methods": {}
  }
}